{
  "_format": "hh-sol-artifact-1",
  "contractName": "MyEpicGame",
  "sourceName": "contracts/MyEpicGame.sol",
  "abi": [
    {
      "inputs": [
        {
          "internalType": "string[]",
          "name": "characterNames",
          "type": "string[]"
        },
        {
          "internalType": "string[]",
          "name": "characterImageURIs",
          "type": "string[]"
        },
        {
          "internalType": "uint256[]",
          "name": "characterHp",
          "type": "uint256[]"
        },
        {
          "internalType": "uint256[]",
          "name": "characterAttackDmg",
          "type": "uint256[]"
        },
        {
          "internalType": "uint256[]",
          "name": "characterDefense",
          "type": "uint256[]"
        },
        {
          "internalType": "string",
          "name": "bossName",
          "type": "string"
        },
        {
          "internalType": "string",
          "name": "bossImageURI",
          "type": "string"
        },
        {
          "internalType": "uint256",
          "name": "bossHp",
          "type": "uint256"
        },
        {
          "internalType": "uint256",
          "name": "bossAttackDamage",
          "type": "uint256"
        },
        {
          "internalType": "uint256",
          "name": "bossMaxAttackDamage",
          "type": "uint256"
        }
      ],
      "stateMutability": "nonpayable",
      "type": "constructor"
    },
    {
      "anonymous": false,
      "inputs": [
        {
          "indexed": true,
          "internalType": "address",
          "name": "owner",
          "type": "address"
        },
        {
          "indexed": true,
          "internalType": "address",
          "name": "approved",
          "type": "address"
        },
        {
          "indexed": true,
          "internalType": "uint256",
          "name": "tokenId",
          "type": "uint256"
        }
      ],
      "name": "Approval",
      "type": "event"
    },
    {
      "anonymous": false,
      "inputs": [
        {
          "indexed": true,
          "internalType": "address",
          "name": "owner",
          "type": "address"
        },
        {
          "indexed": true,
          "internalType": "address",
          "name": "operator",
          "type": "address"
        },
        {
          "indexed": false,
          "internalType": "bool",
          "name": "approved",
          "type": "bool"
        }
      ],
      "name": "ApprovalForAll",
      "type": "event"
    },
    {
      "anonymous": false,
      "inputs": [
        {
          "indexed": false,
          "internalType": "uint256",
          "name": "newBossHp",
          "type": "uint256"
        },
        {
          "indexed": false,
          "internalType": "uint256",
          "name": "newBossAttack",
          "type": "uint256"
        },
        {
          "indexed": false,
          "internalType": "uint256",
          "name": "newPlayerHp",
          "type": "uint256"
        },
        {
          "indexed": false,
          "internalType": "uint256",
          "name": "newPlayerAttack",
          "type": "uint256"
        },
        {
          "indexed": false,
          "internalType": "uint256",
          "name": "newPlayerDefense",
          "type": "uint256"
        }
      ],
      "name": "AttackComplete",
      "type": "event"
    },
    {
      "anonymous": false,
      "inputs": [
        {
          "indexed": false,
          "internalType": "address",
          "name": "sender",
          "type": "address"
        },
        {
          "indexed": false,
          "internalType": "uint256",
          "name": "tokenId",
          "type": "uint256"
        },
        {
          "indexed": false,
          "internalType": "uint256",
          "name": "characterIndex",
          "type": "uint256"
        }
      ],
      "name": "CharacterNFTMinted",
      "type": "event"
    },
    {
      "anonymous": false,
      "inputs": [
        {
          "indexed": false,
          "internalType": "uint256",
          "name": "newPlayerAttack",
          "type": "uint256"
        },
        {
          "indexed": false,
          "internalType": "uint256",
          "name": "newPlayerDefense",
          "type": "uint256"
        }
      ],
      "name": "PlayerRecovered",
      "type": "event"
    },
    {
      "anonymous": false,
      "inputs": [
        {
          "indexed": true,
          "internalType": "address",
          "name": "from",
          "type": "address"
        },
        {
          "indexed": true,
          "internalType": "address",
          "name": "to",
          "type": "address"
        },
        {
          "indexed": true,
          "internalType": "uint256",
          "name": "tokenId",
          "type": "uint256"
        }
      ],
      "name": "Transfer",
      "type": "event"
    },
    {
      "inputs": [],
      "name": "DiceRoll",
      "outputs": [
        {
          "internalType": "uint256",
          "name": "",
          "type": "uint256"
        }
      ],
      "stateMutability": "view",
      "type": "function"
    },
    {
      "inputs": [
        {
          "internalType": "address",
          "name": "to",
          "type": "address"
        },
        {
          "internalType": "uint256",
          "name": "tokenId",
          "type": "uint256"
        }
      ],
      "name": "approve",
      "outputs": [],
      "stateMutability": "nonpayable",
      "type": "function"
    },
    {
      "inputs": [],
      "name": "attackBoss",
      "outputs": [],
      "stateMutability": "nonpayable",
      "type": "function"
    },
    {
      "inputs": [
        {
          "internalType": "address",
          "name": "owner",
          "type": "address"
        }
      ],
      "name": "balanceOf",
      "outputs": [
        {
          "internalType": "uint256",
          "name": "",
          "type": "uint256"
        }
      ],
      "stateMutability": "view",
      "type": "function"
    },
    {
      "inputs": [],
      "name": "bigBoss",
      "outputs": [
        {
          "internalType": "string",
          "name": "name",
          "type": "string"
        },
        {
          "internalType": "string",
          "name": "imageURI",
          "type": "string"
        },
        {
          "internalType": "uint256",
          "name": "hp",
          "type": "uint256"
        },
        {
          "internalType": "uint256",
          "name": "maxHp",
          "type": "uint256"
        },
        {
          "internalType": "uint256",
          "name": "attackDamage",
          "type": "uint256"
        },
        {
          "internalType": "uint256",
          "name": "maxAttackDamage",
          "type": "uint256"
        }
      ],
      "stateMutability": "view",
      "type": "function"
    },
    {
      "inputs": [],
      "name": "bossAction",
      "outputs": [],
      "stateMutability": "nonpayable",
      "type": "function"
    },
    {
      "inputs": [],
      "name": "bossAttack",
      "outputs": [],
      "stateMutability": "nonpayable",
      "type": "function"
    },
    {
      "inputs": [],
      "name": "checkIfUserHasNFT",
      "outputs": [
        {
          "components": [
            {
              "internalType": "uint256",
              "name": "characterIndex",
              "type": "uint256"
            },
            {
              "internalType": "string",
              "name": "name",
              "type": "string"
            },
            {
              "internalType": "string",
              "name": "imageURI",
              "type": "string"
            },
            {
              "internalType": "uint256",
              "name": "hp",
              "type": "uint256"
            },
            {
              "internalType": "uint256",
              "name": "maxHp",
              "type": "uint256"
            },
            {
              "internalType": "uint256",
              "name": "attackDamage",
              "type": "uint256"
            },
            {
              "internalType": "uint256",
              "name": "maxAttackDamage",
              "type": "uint256"
            },
            {
              "internalType": "uint256",
              "name": "defense",
              "type": "uint256"
            },
            {
              "internalType": "uint256",
              "name": "maxDefense",
              "type": "uint256"
            }
          ],
          "internalType": "struct MyEpicGame.CharacterAttributes",
          "name": "",
          "type": "tuple"
        }
      ],
      "stateMutability": "view",
      "type": "function"
    },
    {
      "inputs": [],
      "name": "getAllDefaultCharacters",
      "outputs": [
        {
          "components": [
            {
              "internalType": "uint256",
              "name": "characterIndex",
              "type": "uint256"
            },
            {
              "internalType": "string",
              "name": "name",
              "type": "string"
            },
            {
              "internalType": "string",
              "name": "imageURI",
              "type": "string"
            },
            {
              "internalType": "uint256",
              "name": "hp",
              "type": "uint256"
            },
            {
              "internalType": "uint256",
              "name": "maxHp",
              "type": "uint256"
            },
            {
              "internalType": "uint256",
              "name": "attackDamage",
              "type": "uint256"
            },
            {
              "internalType": "uint256",
              "name": "maxAttackDamage",
              "type": "uint256"
            },
            {
              "internalType": "uint256",
              "name": "defense",
              "type": "uint256"
            },
            {
              "internalType": "uint256",
              "name": "maxDefense",
              "type": "uint256"
            }
          ],
          "internalType": "struct MyEpicGame.CharacterAttributes[]",
          "name": "",
          "type": "tuple[]"
        }
      ],
      "stateMutability": "view",
      "type": "function"
    },
    {
      "inputs": [
        {
          "internalType": "uint256",
          "name": "tokenId",
          "type": "uint256"
        }
      ],
      "name": "getApproved",
      "outputs": [
        {
          "internalType": "address",
          "name": "",
          "type": "address"
        }
      ],
      "stateMutability": "view",
      "type": "function"
    },
    {
      "inputs": [],
      "name": "getBigBoss",
      "outputs": [
        {
          "components": [
            {
              "internalType": "string",
              "name": "name",
              "type": "string"
            },
            {
              "internalType": "string",
              "name": "imageURI",
              "type": "string"
            },
            {
              "internalType": "uint256",
              "name": "hp",
              "type": "uint256"
            },
            {
              "internalType": "uint256",
              "name": "maxHp",
              "type": "uint256"
            },
            {
              "internalType": "uint256",
              "name": "attackDamage",
              "type": "uint256"
            },
            {
              "internalType": "uint256",
              "name": "maxAttackDamage",
              "type": "uint256"
            }
          ],
          "internalType": "struct MyEpicGame.BigBoss",
          "name": "",
          "type": "tuple"
        }
      ],
      "stateMutability": "view",
      "type": "function"
    },
    {
      "inputs": [],
      "name": "getRandomNumber",
      "outputs": [
        {
          "internalType": "bytes32",
          "name": "requestId",
          "type": "bytes32"
        }
      ],
      "stateMutability": "nonpayable",
      "type": "function"
    },
    {
      "inputs": [
        {
          "internalType": "address",
          "name": "owner",
          "type": "address"
        },
        {
          "internalType": "address",
          "name": "operator",
          "type": "address"
        }
      ],
      "name": "isApprovedForAll",
      "outputs": [
        {
          "internalType": "bool",
          "name": "",
          "type": "bool"
        }
      ],
      "stateMutability": "view",
      "type": "function"
    },
    {
      "inputs": [
        {
          "internalType": "uint256",
          "name": "_characterIndex",
          "type": "uint256"
        }
      ],
      "name": "mintCharacterNFT",
      "outputs": [],
      "stateMutability": "nonpayable",
      "type": "function"
    },
    {
      "inputs": [],
      "name": "name",
      "outputs": [
        {
          "internalType": "string",
          "name": "",
          "type": "string"
        }
      ],
      "stateMutability": "view",
      "type": "function"
    },
    {
      "inputs": [
        {
          "internalType": "uint256",
          "name": "",
          "type": "uint256"
        }
      ],
      "name": "nftHolderAttributes",
      "outputs": [
        {
          "internalType": "uint256",
          "name": "characterIndex",
          "type": "uint256"
        },
        {
          "internalType": "string",
          "name": "name",
          "type": "string"
        },
        {
          "internalType": "string",
          "name": "imageURI",
          "type": "string"
        },
        {
          "internalType": "uint256",
          "name": "hp",
          "type": "uint256"
        },
        {
          "internalType": "uint256",
          "name": "maxHp",
          "type": "uint256"
        },
        {
          "internalType": "uint256",
          "name": "attackDamage",
          "type": "uint256"
        },
        {
          "internalType": "uint256",
          "name": "maxAttackDamage",
          "type": "uint256"
        },
        {
          "internalType": "uint256",
          "name": "defense",
          "type": "uint256"
        },
        {
          "internalType": "uint256",
          "name": "maxDefense",
          "type": "uint256"
        }
      ],
      "stateMutability": "view",
      "type": "function"
    },
    {
      "inputs": [
        {
          "internalType": "address",
          "name": "",
          "type": "address"
        }
      ],
      "name": "nftHolders",
      "outputs": [
        {
          "internalType": "uint256",
          "name": "",
          "type": "uint256"
        }
      ],
      "stateMutability": "view",
      "type": "function"
    },
    {
      "inputs": [
        {
          "internalType": "uint256",
          "name": "tokenId",
          "type": "uint256"
        }
      ],
      "name": "ownerOf",
      "outputs": [
        {
          "internalType": "address",
          "name": "",
          "type": "address"
        }
      ],
      "stateMutability": "view",
      "type": "function"
    },
    {
      "inputs": [],
      "name": "playerRecover",
      "outputs": [],
      "stateMutability": "nonpayable",
      "type": "function"
    },
    {
      "inputs": [],
      "name": "randomEffectNumber",
      "outputs": [
        {
          "internalType": "uint256",
          "name": "",
          "type": "uint256"
        }
      ],
      "stateMutability": "view",
      "type": "function"
    },
    {
      "inputs": [
        {
          "internalType": "bytes32",
          "name": "requestId",
          "type": "bytes32"
        },
        {
          "internalType": "uint256",
          "name": "randomness",
          "type": "uint256"
        }
      ],
      "name": "rawFulfillRandomness",
      "outputs": [],
      "stateMutability": "nonpayable",
      "type": "function"
    },
    {
      "inputs": [
        {
          "internalType": "address",
          "name": "from",
          "type": "address"
        },
        {
          "internalType": "address",
          "name": "to",
          "type": "address"
        },
        {
          "internalType": "uint256",
          "name": "tokenId",
          "type": "uint256"
        }
      ],
      "name": "safeTransferFrom",
      "outputs": [],
      "stateMutability": "nonpayable",
      "type": "function"
    },
    {
      "inputs": [
        {
          "internalType": "address",
          "name": "from",
          "type": "address"
        },
        {
          "internalType": "address",
          "name": "to",
          "type": "address"
        },
        {
          "internalType": "uint256",
          "name": "tokenId",
          "type": "uint256"
        },
        {
          "internalType": "bytes",
          "name": "_data",
          "type": "bytes"
        }
      ],
      "name": "safeTransferFrom",
      "outputs": [],
      "stateMutability": "nonpayable",
      "type": "function"
    },
    {
      "inputs": [
        {
          "internalType": "address",
          "name": "operator",
          "type": "address"
        },
        {
          "internalType": "bool",
          "name": "approved",
          "type": "bool"
        }
      ],
      "name": "setApprovalForAll",
      "outputs": [],
      "stateMutability": "nonpayable",
      "type": "function"
    },
    {
      "inputs": [
        {
          "internalType": "bytes4",
          "name": "interfaceId",
          "type": "bytes4"
        }
      ],
      "name": "supportsInterface",
      "outputs": [
        {
          "internalType": "bool",
          "name": "",
          "type": "bool"
        }
      ],
      "stateMutability": "view",
      "type": "function"
    },
    {
      "inputs": [],
      "name": "symbol",
      "outputs": [
        {
          "internalType": "string",
          "name": "",
          "type": "string"
        }
      ],
      "stateMutability": "view",
      "type": "function"
    },
    {
      "inputs": [
        {
          "internalType": "uint256",
          "name": "_tokenId",
          "type": "uint256"
        }
      ],
      "name": "tokenURI",
      "outputs": [
        {
          "internalType": "string",
          "name": "",
          "type": "string"
        }
      ],
      "stateMutability": "view",
      "type": "function"
    },
    {
      "inputs": [
        {
          "internalType": "address",
          "name": "from",
          "type": "address"
        },
        {
          "internalType": "address",
          "name": "to",
          "type": "address"
        },
        {
          "internalType": "uint256",
          "name": "tokenId",
          "type": "uint256"
        }
      ],
      "name": "transferFrom",
      "outputs": [],
      "stateMutability": "nonpayable",
      "type": "function"
    }
  ],
  "bytecode": "0x60c06040523480156200001157600080fd5b506040516200734e3803806200734e833981810160405281019062000037919062000e98565b73b3dccb4cf7a26f6cf6b120cf5a73875b7bbc655b7301be23585060835e02b77ef475b0cc51aa1e07096040518060400160405280600781526020017f4c6567656e6473000000000000000000000000000000000000000000000000008152506040518060400160405280600681526020017f4c4547454e4400000000000000000000000000000000000000000000000000008152508160009080519060200190620000e592919062000c2b565b508060019080519060200190620000fe92919062000c2b565b5050508173ffffffffffffffffffffffffffffffffffffffff1660a08173ffffffffffffffffffffffffffffffffffffffff1660601b815250508073ffffffffffffffffffffffffffffffffffffffff1660808173ffffffffffffffffffffffffffffffffffffffff1660601b8152505050507f2ed0feb3e7fd2022120aa84fab1945545a9f2ffc9076fd6156fa96eaff4c131160001b60078190555067016345785d8a00006008819055506040518060c0016040528086815260200185815260200184815260200184815260200183815260200182815250600e6000820151816000019080519060200190620001f792919062000c2b565b5060208201518160010190805190602001906200021692919062000c2b565b5060408201518160020155606082015181600301556080820151816004015560a08201518160050155905050620003136040518060600160405280602e815260200162007320602e9139600e60000180546200027290620012e1565b80601f0160208091040260200160405190810160405280929190818152602001828054620002a090620012e1565b8015620002f15780601f10620002c557610100808354040283529160200191620002f1565b820191906000526020600020905b815481529060010190602001808311620002d357829003601f168201915b5050505050600e60020154600e60040154620009f160201b62002bc21760201c565b620003f46040518060400160405280601881526020017f4865726520697320686f77206865206c6f6f6b733a2025730000000000000000815250600e60010180546200035f90620012e1565b80601f01602080910402602001604051908101604052809291908181526020018280546200038d90620012e1565b8015620003de5780601f10620003b257610100808354040283529160200191620003de565b820191906000526020600020905b815481529060010190602001808311620003c057829003601f168201915b505050505062000a9d60201b62002c641760201c565b60005b8a51811015620009c95760146040518061012001604052808381526020018d84815181106200044f577f4e487b7100000000000000000000000000000000000000000000000000000000600052603260045260246000fd5b602002602001015181526020018c848151811062000496577f4e487b7100000000000000000000000000000000000000000000000000000000600052603260045260246000fd5b602002602001015181526020018b8481518110620004dd577f4e487b7100000000000000000000000000000000000000000000000000000000600052603260045260246000fd5b602002602001015181526020018b848151811062000524577f4e487b7100000000000000000000000000000000000000000000000000000000600052603260045260246000fd5b602002602001015181526020018a84815181106200056b577f4e487b7100000000000000000000000000000000000000000000000000000000600052603260045260246000fd5b602002602001015181526020018a8481518110620005b2577f4e487b7100000000000000000000000000000000000000000000000000000000600052603260045260246000fd5b60200260200101518152602001898481518110620005f9577f4e487b7100000000000000000000000000000000000000000000000000000000600052603260045260246000fd5b6020026020010151815260200189848151811062000640577f4e487b7100000000000000000000000000000000000000000000000000000000600052603260045260246000fd5b602002602001015181525090806001815401808255809150506001900390600052602060002090600902016000909190919091506000820151816000015560208201518160010190805190602001906200069c92919062000c2b565b506040820151816002019080519060200190620006bb92919062000c2b565b50606082015181600301556080820151816004015560a0820151816005015560c0820151816006015560e082015181600701556101008201518160080155505060006014828154811062000738577f4e487b7100000000000000000000000000000000000000000000000000000000600052603260045260246000fd5b906000526020600020906009020160405180610120016040529081600082015481526020016001820180546200076e90620012e1565b80601f01602080910402602001604051908101604052809291908181526020018280546200079c90620012e1565b8015620007ed5780601f10620007c157610100808354040283529160200191620007ed565b820191906000526020600020905b815481529060010190602001808311620007cf57829003601f168201915b505050505081526020016002820180546200080890620012e1565b80601f01602080910402602001604051908101604052809291908181526020018280546200083690620012e1565b8015620008875780601f106200085b5761010080835404028352916020019162000887565b820191906000526020600020905b8154815290600101906020018083116200086957829003601f168201915b50505050508152602001600382015481526020016004820154815260200160058201548152602001600682015481526020016007820154815260200160088201548152505090506200090c604051806060016040528060278152602001620072f960279139826020015183606001518460800151620009f160201b62002bc21760201c565b620009616040518060400160405280601b81526020017f416e642061747461636b2025732c20646566656e73652025732c2000000000008152508260a001518360e0015162000b4360201b62002d001760201c565b620009b16040518060400160405280600c81526020017f576974682020696d672025730000000000000000000000000000000000000000815250826040015162000a9d60201b62002c641760201c565b50600181620009c1919062001244565b9050620003f7565b50620009e1600b62000bec60201b62002d9f1760201c565b50505050505050505050620013cf565b62000a978484848460405160240162000a0e9493929190620010c4565b6040516020818303038152906040527fd5cf17d0000000000000000000000000000000000000000000000000000000007bffffffffffffffffffffffffffffffffffffffffffffffffffffffff19166020820180517bffffffffffffffffffffffffffffffffffffffffffffffffffffffff838183161783525050505062000c0260201b60201c565b50505050565b62000b3f828260405160240162000ab692919062001089565b6040516020818303038152906040527f4b5c4277000000000000000000000000000000000000000000000000000000007bffffffffffffffffffffffffffffffffffffffffffffffffffffffff19166020820180517bffffffffffffffffffffffffffffffffffffffffffffffffffffffff838183161783525050505062000c0260201b60201c565b5050565b62000be783838360405160240162000b5e939291906200111f565b6040516020818303038152906040527f969cdd03000000000000000000000000000000000000000000000000000000007bffffffffffffffffffffffffffffffffffffffffffffffffffffffff19166020820180517bffffffffffffffffffffffffffffffffffffffffffffffffffffffff838183161783525050505062000c0260201b60201c565b505050565b6001816000016000828254019250508190555050565b60008151905060006a636f6e736f6c652e6c6f679050602083016000808483855afa5050505050565b82805462000c3990620012e1565b90600052602060002090601f01602090048101928262000c5d576000855562000ca9565b82601f1062000c7857805160ff191683800117855562000ca9565b8280016001018555821562000ca9579182015b8281111562000ca857825182559160200191906001019062000c8b565b5b50905062000cb8919062000cbc565b5090565b5b8082111562000cd757600081600090555060010162000cbd565b5090565b600062000cf262000cec8462001197565b62001163565b9050808382526020820190508260005b8581101562000d36578151850162000d1b888262000e54565b84526020840193506020830192505060018101905062000d02565b5050509392505050565b600062000d5762000d5184620011c6565b62001163565b9050808382526020820190508285602086028201111562000d7757600080fd5b60005b8581101562000dab578162000d90888262000e81565b84526020840193506020830192505060018101905062000d7a565b5050509392505050565b600062000dcc62000dc684620011f5565b62001163565b90508281526020810184848401111562000de557600080fd5b62000df2848285620012ab565b509392505050565b600082601f83011262000e0c57600080fd5b815162000e1e84826020860162000cdb565b91505092915050565b600082601f83011262000e3957600080fd5b815162000e4b84826020860162000d40565b91505092915050565b600082601f83011262000e6657600080fd5b815162000e7884826020860162000db5565b91505092915050565b60008151905062000e9281620013b5565b92915050565b6000806000806000806000806000806101408b8d03121562000eb957600080fd5b60008b015167ffffffffffffffff81111562000ed457600080fd5b62000ee28d828e0162000dfa565b9a505060208b015167ffffffffffffffff81111562000f0057600080fd5b62000f0e8d828e0162000dfa565b99505060408b015167ffffffffffffffff81111562000f2c57600080fd5b62000f3a8d828e0162000e27565b98505060608b015167ffffffffffffffff81111562000f5857600080fd5b62000f668d828e0162000e27565b97505060808b015167ffffffffffffffff81111562000f8457600080fd5b62000f928d828e0162000e27565b96505060a08b015167ffffffffffffffff81111562000fb057600080fd5b62000fbe8d828e0162000e54565b95505060c08b015167ffffffffffffffff81111562000fdc57600080fd5b62000fea8d828e0162000e54565b94505060e062000ffd8d828e0162000e81565b935050610100620010118d828e0162000e81565b925050610120620010258d828e0162000e81565b9150509295989b9194979a5092959850565b6000620010448262001228565b62001050818562001233565b935062001062818560208601620012ab565b6200106d81620013a4565b840191505092915050565b6200108381620012a1565b82525050565b60006040820190508181036000830152620010a5818562001037565b90508181036020830152620010bb818462001037565b90509392505050565b60006080820190508181036000830152620010e0818762001037565b90508181036020830152620010f6818662001037565b905062001107604083018562001078565b62001116606083018462001078565b95945050505050565b600060608201905081810360008301526200113b818662001037565b90506200114c602083018562001078565b6200115b604083018462001078565b949350505050565b6000604051905081810181811067ffffffffffffffff821117156200118d576200118c62001375565b5b8060405250919050565b600067ffffffffffffffff821115620011b557620011b462001375565b5b602082029050602081019050919050565b600067ffffffffffffffff821115620011e457620011e362001375565b5b602082029050602081019050919050565b600067ffffffffffffffff82111562001213576200121262001375565b5b601f19601f8301169050602081019050919050565b600081519050919050565b600082825260208201905092915050565b60006200125182620012a1565b91506200125e83620012a1565b9250827fffffffffffffffffffffffffffffffffffffffffffffffffffffffffffffffff0382111562001296576200129562001317565b5b828201905092915050565b6000819050919050565b60005b83811015620012cb578082015181840152602081019050620012ae565b83811115620012db576000848401525b50505050565b60006002820490506001821680620012fa57607f821691505b6020821081141562001311576200131062001346565b5b50919050565b7f4e487b7100000000000000000000000000000000000000000000000000000000600052601160045260246000fd5b7f4e487b7100000000000000000000000000000000000000000000000000000000600052602260045260246000fd5b7f4e487b7100000000000000000000000000000000000000000000000000000000600052604160045260246000fd5b6000601f19601f8301169050919050565b620013c081620012a1565b8114620013cc57600080fd5b50565b60805160601c60a05160601c615ef0620014096000396000818161130601526138cd01526000818161222201526138910152615ef06000f3fe608060405234801561001057600080fd5b50600436106101c45760003560e01c806394985ddd116100f9578063c87b56dd11610097578063dbdff2c111610071578063dbdff2c1146104dc578063e1c3ab1e146104fa578063e985e9c514610504578063f8b81ef714610534576101c4565b8063c87b56dd14610484578063c8cf27f4146104b4578063d4f24c5b146104d2576101c4565b8063a22cb465116100d3578063a22cb4651461040b578063a9c3267914610427578063b88d4fde1461044a578063b953084e14610466576101c4565b806394985ddd1461039957806395d89b41146103b557806398da4c95146103d3576101c4565b806342842e0e1161016657806370a082311161014057806370a0823114610311578063754e1764146103415780637df124a11461035f5780638c10cd061461038f576101c4565b806342842e0e146102bb5780635e0347f3146102d75780636352211e146102e1576101c4565b8063081812fc116101a2578063081812fc14610235578063095ea7b31461026557806317fa8b251461028157806323b872dd1461029f576101c4565b806301ffc9a7146101c95780630665f961146101f957806306fdde0314610217575b600080fd5b6101e360048036038101906101de91906142cc565b610550565b6040516101f09190615269565b60405180910390f35b610201610632565b60405161020e91906156db565b60405180910390f35b61021f610798565b60405161022c919061530d565b60405180910390f35b61024f600480360381019061024a919061431e565b61082a565b60405161025c919061516b565b60405180910390f35b61027f600480360381019061027a919061422b565b6108af565b005b6102896109c7565b604051610296919061571f565b60405180910390f35b6102b960048036038101906102b49190614125565b6109cd565b005b6102d560048036038101906102d09190614125565b610a2d565b005b6102df610a4d565b005b6102fb60048036038101906102f6919061431e565b610d88565b604051610308919061516b565b60405180910390f35b61032b600480360381019061032691906140c0565b610e3a565b604051610338919061571f565b60405180910390f35b610349610ef2565b604051610356919061571f565b60405180910390f35b610379600480360381019061037491906140c0565b610ef8565b604051610386919061571f565b60405180910390f35b610397610f10565b005b6103b360048036038101906103ae9190614290565b611304565b005b6103bd6113a0565b6040516103ca919061530d565b60405180910390f35b6103ed60048036038101906103e8919061431e565b611432565b6040516104029998979695949392919061573a565b60405180910390f35b610425600480360381019061042091906141ef565b611590565b005b61042f611711565b604051610441969594939291906153fe565b60405180910390f35b610464600480360381019061045f9190614174565b61184b565b005b61046e6118ad565b60405161047b9190615247565b60405180910390f35b61049e6004803603810190610499919061431e565b611a77565b6040516104ab919061530d565b60405180910390f35b6104bc611cee565b6040516104c991906156fd565b60405180910390f35b6104da611ee5565b005b6104e461221b565b6040516104f19190615284565b60405180910390f35b61050261231d565b005b61051e600480360381019061051991906140e9565b612641565b60405161052b9190615269565b60405180910390f35b61054e6004803603810190610549919061431e565b6126d5565b005b60007f80ac58cd000000000000000000000000000000000000000000000000000000007bffffffffffffffffffffffffffffffffffffffffffffffffffffffff1916827bffffffffffffffffffffffffffffffffffffffffffffffffffffffff1916148061061b57507f5b5e139f000000000000000000000000000000000000000000000000000000007bffffffffffffffffffffffffffffffffffffffffffffffffffffffff1916827bffffffffffffffffffffffffffffffffffffffffffffffffffffffff1916145b8061062b575061062a82612db5565b5b9050919050565b61063a613e8b565b600e6040518060c001604052908160008201805461065790615b14565b80601f016020809104026020016040519081016040528092919081815260200182805461068390615b14565b80156106d05780601f106106a5576101008083540402835291602001916106d0565b820191906000526020600020905b8154815290600101906020018083116106b357829003601f168201915b505050505081526020016001820180546106e990615b14565b80601f016020809104026020016040519081016040528092919081815260200182805461071590615b14565b80156107625780601f1061073757610100808354040283529160200191610762565b820191906000526020600020905b81548152906001019060200180831161074557829003601f168201915b50505050508152602001600282015481526020016003820154815260200160048201548152602001600582015481525050905090565b6060600080546107a790615b14565b80601f01602080910402602001604051908101604052809291908181526020018280546107d390615b14565b80156108205780601f106107f557610100808354040283529160200191610820565b820191906000526020600020905b81548152906001019060200180831161080357829003601f168201915b5050505050905090565b600061083582612e1f565b610874576040517f08c379a000000000000000000000000000000000000000000000000000000000815260040161086b9061563b565b60405180910390fd5b6004600083815260200190815260200160002060009054906101000a900473ffffffffffffffffffffffffffffffffffffffff169050919050565b60006108ba82610d88565b90508073ffffffffffffffffffffffffffffffffffffffff168373ffffffffffffffffffffffffffffffffffffffff16141561092b576040517f08c379a00000000000000000000000000000000000000000000000000000000081526004016109229061569b565b60405180910390fd5b8073ffffffffffffffffffffffffffffffffffffffff1661094a612e8b565b73ffffffffffffffffffffffffffffffffffffffff161480610979575061097881610973612e8b565b612641565b5b6109b8576040517f08c379a00000000000000000000000000000000000000000000000000000000081526004016109af906155bb565b60405180910390fd5b6109c28383612e93565b505050565b600a5481565b6109de6109d8612e8b565b82612f4c565b610a1d576040517f08c379a0000000000000000000000000000000000000000000000000000000008152600401610a14906156bb565b60405180910390fd5b610a2883838361302a565b505050565b610a488383836040518060200160405280600081525061184b565b505050565b6000600d60003373ffffffffffffffffffffffffffffffffffffffff1673ffffffffffffffffffffffffffffffffffffffff1681526020019081526020016000205490506000600c600083815260200190815260200160002090506000600a6101eb42600a54610abd919061593f565b604051602001610acd919061571f565b6040516020818303038152906040528051906020012060001c610af09190615ba3565b610afa919061593f565b9050610bb46040518060600160405280603f8152602001615d15603f9139836001018054610b2790615b14565b80601f0160208091040260200160405190810160405280929190818152602001828054610b5390615b14565b8015610ba05780601f10610b7557610100808354040283529160200191610ba0565b820191906000526020600020905b815481529060010190602001808311610b8357829003601f168201915b505050505084600501548560070154612bc2565b816006015482600501541080610bd1575081600801548260070154105b610c10576040517f08c379a0000000000000000000000000000000000000000000000000000000008152600401610c079061555b565b60405180910390fd5b8160060154818360050154610c25919061593f565b1115610c635781600601548260050181905550610c5e604051806060016040528060278152602001615df9602791398360050154613286565b610ca5565b80826005016000828254610c77919061593f565b92505081905550610ca4604051806060016040528060278152602001615df9602791398360050154613286565b5b8160080154818360070154610cba919061593f565b1115610cf85781600801548260070181905550610cf3604051806060016040528060278152602001615dd2602791398360070154613286565b610d3a565b80826007016000828254610d0c919061593f565b92505081905550610d39604051806060016040528060278152602001615dd2602791398360070154613286565b5b7f11a8f6e208a2c0b178502c2d1dfa3e566b4c1217db215c5a8a5fe582e120834982600501548360070154604051610d739291906157d5565b60405180910390a1610d8361231d565b505050565b6000806002600084815260200190815260200160002060009054906101000a900473ffffffffffffffffffffffffffffffffffffffff169050600073ffffffffffffffffffffffffffffffffffffffff168173ffffffffffffffffffffffffffffffffffffffff161415610e31576040517f08c379a0000000000000000000000000000000000000000000000000000000008152600401610e28906155fb565b60405180910390fd5b80915050919050565b60008073ffffffffffffffffffffffffffffffffffffffff168273ffffffffffffffffffffffffffffffffffffffff161415610eab576040517f08c379a0000000000000000000000000000000000000000000000000000000008152600401610ea2906155db565b60405180910390fd5b600360008373ffffffffffffffffffffffffffffffffffffffff1673ffffffffffffffffffffffffffffffffffffffff168152602001908152602001600020549050919050565b60095481565b600d6020528060005260406000206000915090505481565b6000600d60003373ffffffffffffffffffffffffffffffffffffffff1673ffffffffffffffffffffffffffffffffffffffff1681526020019081526020016000205490506000600c60008381526020019081526020016000209050600080600e6002015411610f7e57600080fd5b600082600701541115611177576000600e600401548360070154610fa29190615a20565b101561109d578160070154600e60040154610fbd9190615a20565b90506000826007018190555080826003016000828254610fdd9190615a20565b925050819055506110986040518060600160405280603e8152602001615d54603e9139600e600001805461101090615b14565b80601f016020809104026020016040519081016040528092919081815260200182805461103c90615b14565b80156110895780601f1061105e57610100808354040283529160200191611089565b820191906000526020600020905b81548152906001019060200180831161106c57829003601f168201915b50505050508460030154613322565b611172565b600e600401548260070160008282546110b69190615a20565b92505081905550611171604051806060016040528060358152602001615e8660359139600e60000180546110e990615b14565b80601f016020809104026020016040519081016040528092919081815260200182805461111590615b14565b80156111625780601f1061113757610100808354040283529160200191611162565b820191906000526020600020905b81548152906001019060200180831161114557829003601f168201915b50505050508460070154613322565b5b6112aa565b600e600401548260030154116111d457600082600301819055506111cf6040518060400160405280600c81526020017f596f75206c6f73742e20474700000000000000000000000000000000000000008152506133c1565b6112a9565b600e600401548260030160008282546111ed9190615a20565b925050819055506112a86040518060600160405280602a8152602001615e20602a9139600e600001805461122090615b14565b80601f016020809104026020016040519081016040528092919081815260200182805461124c90615b14565b80156112995780601f1061126e57610100808354040283529160200191611299565b820191906000526020600020905b81548152906001019060200180831161127c57829003601f168201915b50505050508460030154613322565b5b5b7f1fd6ebede1d1a6538f0996e1c9df83113510fe51875e83e1b32422eebbd53417600e60020154600e600401548460030154856005015486600701546040516112f79594939291906157fe565b60405180910390a1505050565b7f000000000000000000000000000000000000000000000000000000000000000073ffffffffffffffffffffffffffffffffffffffff163373ffffffffffffffffffffffffffffffffffffffff1614611392576040517f08c379a00000000000000000000000000000000000000000000000000000000081526004016113899061567b565b60405180910390fd5b61139c828261345a565b5050565b6060600180546113af90615b14565b80601f01602080910402602001604051908101604052809291908181526020018280546113db90615b14565b80156114285780601f106113fd57610100808354040283529160200191611428565b820191906000526020600020905b81548152906001019060200180831161140b57829003601f168201915b5050505050905090565b600c60205280600052604060002060009150905080600001549080600101805461145b90615b14565b80601f016020809104026020016040519081016040528092919081815260200182805461148790615b14565b80156114d45780601f106114a9576101008083540402835291602001916114d4565b820191906000526020600020905b8154815290600101906020018083116114b757829003601f168201915b5050505050908060020180546114e990615b14565b80601f016020809104026020016040519081016040528092919081815260200182805461151590615b14565b80156115625780601f1061153757610100808354040283529160200191611562565b820191906000526020600020905b81548152906001019060200180831161154557829003601f168201915b5050505050908060030154908060040154908060050154908060060154908060070154908060080154905089565b611598612e8b565b73ffffffffffffffffffffffffffffffffffffffff168273ffffffffffffffffffffffffffffffffffffffff161415611606576040517f08c379a00000000000000000000000000000000000000000000000000000000081526004016115fd9061553b565b60405180910390fd5b8060056000611613612e8b565b73ffffffffffffffffffffffffffffffffffffffff1673ffffffffffffffffffffffffffffffffffffffff16815260200190815260200160002060008473ffffffffffffffffffffffffffffffffffffffff1673ffffffffffffffffffffffffffffffffffffffff16815260200190815260200160002060006101000a81548160ff0219169083151502179055508173ffffffffffffffffffffffffffffffffffffffff166116c0612e8b565b73ffffffffffffffffffffffffffffffffffffffff167f17307eab39ab6107e8899845ad3d59bd9653f200f220920489ca2b5937696c31836040516117059190615269565b60405180910390a35050565b600e80600001805461172290615b14565b80601f016020809104026020016040519081016040528092919081815260200182805461174e90615b14565b801561179b5780601f106117705761010080835404028352916020019161179b565b820191906000526020600020905b81548152906001019060200180831161177e57829003601f168201915b5050505050908060010180546117b090615b14565b80601f01602080910402602001604051908101604052809291908181526020018280546117dc90615b14565b80156118295780601f106117fe57610100808354040283529160200191611829565b820191906000526020600020905b81548152906001019060200180831161180c57829003601f168201915b5050505050908060020154908060030154908060040154908060050154905086565b61185c611856612e8b565b83612f4c565b61189b576040517f08c379a0000000000000000000000000000000000000000000000000000000008152600401611892906156bb565b60405180910390fd5b6118a7848484846134c6565b50505050565b60606014805480602002602001604051908101604052809291908181526020016000905b82821015611a6e5783829060005260206000209060090201604051806101200160405290816000820154815260200160018201805461190f90615b14565b80601f016020809104026020016040519081016040528092919081815260200182805461193b90615b14565b80156119885780601f1061195d57610100808354040283529160200191611988565b820191906000526020600020905b81548152906001019060200180831161196b57829003601f168201915b505050505081526020016002820180546119a190615b14565b80601f01602080910402602001604051908101604052809291908181526020018280546119cd90615b14565b8015611a1a5780601f106119ef57610100808354040283529160200191611a1a565b820191906000526020600020905b8154815290600101906020018083116119fd57829003601f168201915b505050505081526020016003820154815260200160048201548152602001600582015481526020016006820154815260200160078201548152602001600882015481525050815260200190600101906118d1565b50505050905090565b60606000600c60008481526020019081526020016000206040518061012001604052908160008201548152602001600182018054611ab490615b14565b80601f0160208091040260200160405190810160405280929190818152602001828054611ae090615b14565b8015611b2d5780601f10611b0257610100808354040283529160200191611b2d565b820191906000526020600020905b815481529060010190602001808311611b1057829003601f168201915b50505050508152602001600282018054611b4690615b14565b80601f0160208091040260200160405190810160405280929190818152602001828054611b7290615b14565b8015611bbf5780601f10611b9457610100808354040283529160200191611bbf565b820191906000526020600020905b815481529060010190602001808311611ba257829003601f168201915b50505050508152602001600382015481526020016004820154815260200160058201548152602001600682015481526020016007820154815260200160088201548152505090506000611c158260600151613522565b90506000611c268360800151613522565b90506000611c378460a00151613522565b90506000611c488560c00151613522565b90506000611c598660e00151613522565b90506000611c6b876101000151613522565b90506000611cb78860200151611c808c613522565b8a604001518a8a8a8a8a8a604051602001611ca39998979695949392919061505c565b6040516020818303038152906040526136cf565b9050600081604051602001611ccc9190615149565b6040516020818303038152906040529050809950505050505050505050919050565b611cf6613ec1565b6000600d60003373ffffffffffffffffffffffffffffffffffffffff1673ffffffffffffffffffffffffffffffffffffffff1681526020019081526020016000205490506000811115611ed457600c60008281526020019081526020016000206040518061012001604052908160008201548152602001600182018054611d7c90615b14565b80601f0160208091040260200160405190810160405280929190818152602001828054611da890615b14565b8015611df55780601f10611dca57610100808354040283529160200191611df5565b820191906000526020600020905b815481529060010190602001808311611dd857829003601f168201915b50505050508152602001600282018054611e0e90615b14565b80601f0160208091040260200160405190810160405280929190818152602001828054611e3a90615b14565b8015611e875780601f10611e5c57610100808354040283529160200191611e87565b820191906000526020600020905b815481529060010190602001808311611e6a57829003601f168201915b505050505081526020016003820154815260200160048201548152602001600582015481526020016006820154815260200160078201548152602001600882015481525050915050611ee2565b611edc613ec1565b80925050505b90565b6000600d60003373ffffffffffffffffffffffffffffffffffffffff1673ffffffffffffffffffffffffffffffffffffffff1681526020019081526020016000205490506000600c60008381526020019081526020016000209050611ff86040518060600160405280603c8152602001615e4a603c9139826001018054611f6b90615b14565b80601f0160208091040260200160405190810160405280929190818152602001828054611f9790615b14565b8015611fe45780601f10611fb957610100808354040283529160200191611fe4565b820191906000526020600020905b815481529060010190602001808311611fc757829003601f168201915b505050505083600301548460050154612bc2565b6120d06040518060400160405280601b81526020017f426f73732025732068617320257320485020616e642025732041440000000000815250600e600001805461204190615b14565b80601f016020809104026020016040519081016040528092919081815260200182805461206d90615b14565b80156120ba5780601f1061208f576101008083540402835291602001916120ba565b820191906000526020600020905b81548152906001019060200180831161209d57829003601f168201915b5050505050600e60020154600e60040154612bc2565b600081600301541180156120e957506000600e60020154115b80156120f9575060008160050154115b61210257600080fd5b8060050154600e60020154116121ee576000600e600201819055506121e96040518060400160405280601e81526020017f566963746f72792120257320686173206265656e206465666561746564210000815250600e600001805461216690615b14565b80601f016020809104026020016040519081016040528092919081815260200182805461219290615b14565b80156121df5780601f106121b4576101008083540402835291602001916121df565b820191906000526020600020905b8154815290600101906020018083116121c257829003601f168201915b5050505050612c64565b612217565b8060050154600e60020160008282546122079190615a20565b9250508190555061221661231d565b5b5050565b60006008547f000000000000000000000000000000000000000000000000000000000000000073ffffffffffffffffffffffffffffffffffffffff166370a08231306040518263ffffffff1660e01b8152600401612279919061516b565b60206040518083038186803b15801561229157600080fd5b505afa1580156122a5573d6000803e3d6000fd5b505050506040513d601f19601f820116820180604052508101906122c99190614347565b101561230a576040517f08c379a00000000000000000000000000000000000000000000000000000000081526004016123019061557b565b60405180910390fd5b61231860075460085461388d565b905090565b6000600d60003373ffffffffffffffffffffffffffffffffffffffff1673ffffffffffffffffffffffffffffffffffffffff1681526020019081526020016000205490506000600c60008381526020019081526020016000209050600060016006424460095461238d919061593f565b612397919061593f565b6040516020016123a7919061571f565b6040516020818303038152906040528051906020012060001c6123ca9190615ba3565b6123d4919061593f565b90506000600a6101eb42600a546123eb919061593f565b6040516020016123fb919061571f565b6040516020818303038152906040528051906020012060001c61241e9190615ba3565b612428919061593f565b90506124686040518060400160405280601d81526020017f426f73732069732061626f757420746f2074616b6520416374696f6e210000008152506133c1565b6000600e600201541161247a57600080fd5b60018214806124995750600682148015612498575060008360070154115b5b156124e65760008184600701546124b09190615a20565b10156124c557600083600701819055506124e1565b808360070160008282546124d99190615a20565b925050819055505b612633565b60028214806125055750600582148015612504575060008360050154115b5b1561255257600081846005015461251c9190615a20565b1015612531576000836005018190555061254d565b808360050160008282546125459190615a20565b925050819055505b612632565b60038214801561256b5750600e60030154600e60020154105b156125c357600e6003015481600e60020154612587919061593f565b11156125a157600e60030154600e600201819055506125be565b80600e60020160008282546125b6919061593f565b925050819055505b612631565b6004821480156125dc5750600e60050154600e60040154105b1561263057600e6005015481600e600401546125f8919061593f565b111561261257600e60050154600e6004018190555061262f565b80600e6004016000828254612627919061593f565b925050819055505b5b5b5b5b61263b610f10565b50505050565b6000600560008473ffffffffffffffffffffffffffffffffffffffff1673ffffffffffffffffffffffffffffffffffffffff16815260200190815260200160002060008373ffffffffffffffffffffffffffffffffffffffff1673ffffffffffffffffffffffffffffffffffffffff16815260200190815260200160002060009054906101000a900460ff16905092915050565b60006126e1600b6139ef565b90506126ed33826139fd565b60405180610120016040528083815260200160148481548110612739577f4e487b7100000000000000000000000000000000000000000000000000000000600052603260045260246000fd5b9060005260206000209060090201600101805461275590615b14565b80601f016020809104026020016040519081016040528092919081815260200182805461278190615b14565b80156127ce5780601f106127a3576101008083540402835291602001916127ce565b820191906000526020600020905b8154815290600101906020018083116127b157829003601f168201915b5050505050815260200160148481548110612812577f4e487b7100000000000000000000000000000000000000000000000000000000600052603260045260246000fd5b9060005260206000209060090201600201805461282e90615b14565b80601f016020809104026020016040519081016040528092919081815260200182805461285a90615b14565b80156128a75780601f1061287c576101008083540402835291602001916128a7565b820191906000526020600020905b81548152906001019060200180831161288a57829003601f168201915b50505050508152602001601484815481106128eb577f4e487b7100000000000000000000000000000000000000000000000000000000600052603260045260246000fd5b90600052602060002090600902016003015481526020016014848154811061293c577f4e487b7100000000000000000000000000000000000000000000000000000000600052603260045260246000fd5b90600052602060002090600902016003015481526020016014848154811061298d577f4e487b7100000000000000000000000000000000000000000000000000000000600052603260045260246000fd5b9060005260206000209060090201600501548152602001601484815481106129de577f4e487b7100000000000000000000000000000000000000000000000000000000600052603260045260246000fd5b906000526020600020906009020160050154815260200160148481548110612a2f577f4e487b7100000000000000000000000000000000000000000000000000000000600052603260045260246000fd5b906000526020600020906009020160070154815260200160148481548110612a80577f4e487b7100000000000000000000000000000000000000000000000000000000600052603260045260246000fd5b906000526020600020906009020160070154815250600c6000838152602001908152602001600020600082015181600001556020820151816001019080519060200190612ace929190613f0d565b506040820151816002019080519060200190612aeb929190613f0d565b50606082015181600301556080820151816004015560a0820151816005015560c0820151816006015560e08201518160070155610100820151816008015590505080600d60003373ffffffffffffffffffffffffffffffffffffffff1673ffffffffffffffffffffffffffffffffffffffff16815260200190815260200160002081905550612b7a600b612d9f565b612b8261221b565b507f4bc303fd457a97b4691b9af582ce71868a3d258638c8d4f8c60988a0f0bfb8cd338284604051612bb693929190615210565b60405180910390a15050565b612c5e84848484604051602401612bdc94939291906153ab565b6040516020818303038152906040527fd5cf17d0000000000000000000000000000000000000000000000000000000007bffffffffffffffffffffffffffffffffffffffffffffffffffffffff19166020820180517bffffffffffffffffffffffffffffffffffffffffffffffffffffffff8381831617835250505050613a1b565b50505050565b612cfc8282604051602401612c7a92919061532f565b6040516020818303038152906040527f4b5c4277000000000000000000000000000000000000000000000000000000007bffffffffffffffffffffffffffffffffffffffffffffffffffffffff19166020820180517bffffffffffffffffffffffffffffffffffffffffffffffffffffffff8381831617835250505050613a1b565b5050565b612d9a838383604051602401612d189392919061549d565b6040516020818303038152906040527f969cdd03000000000000000000000000000000000000000000000000000000007bffffffffffffffffffffffffffffffffffffffffffffffffffffffff19166020820180517bffffffffffffffffffffffffffffffffffffffffffffffffffffffff8381831617835250505050613a1b565b505050565b6001816000016000828254019250508190555050565b60007f01ffc9a7000000000000000000000000000000000000000000000000000000007bffffffffffffffffffffffffffffffffffffffffffffffffffffffff1916827bffffffffffffffffffffffffffffffffffffffffffffffffffffffff1916149050919050565b60008073ffffffffffffffffffffffffffffffffffffffff166002600084815260200190815260200160002060009054906101000a900473ffffffffffffffffffffffffffffffffffffffff1673ffffffffffffffffffffffffffffffffffffffff1614159050919050565b600033905090565b816004600083815260200190815260200160002060006101000a81548173ffffffffffffffffffffffffffffffffffffffff021916908373ffffffffffffffffffffffffffffffffffffffff160217905550808273ffffffffffffffffffffffffffffffffffffffff16612f0683610d88565b73ffffffffffffffffffffffffffffffffffffffff167f8c5be1e5ebec7d5bd14f71427d1e84f3dd0314c0f7b2291e5b200ac8c7c3b92560405160405180910390a45050565b6000612f5782612e1f565b612f96576040517f08c379a0000000000000000000000000000000000000000000000000000000008152600401612f8d9061559b565b60405180910390fd5b6000612fa183610d88565b90508073ffffffffffffffffffffffffffffffffffffffff168473ffffffffffffffffffffffffffffffffffffffff16148061301057508373ffffffffffffffffffffffffffffffffffffffff16612ff88461082a565b73ffffffffffffffffffffffffffffffffffffffff16145b8061302157506130208185612641565b5b91505092915050565b8273ffffffffffffffffffffffffffffffffffffffff1661304a82610d88565b73ffffffffffffffffffffffffffffffffffffffff16146130a0576040517f08c379a00000000000000000000000000000000000000000000000000000000081526004016130979061565b565b60405180910390fd5b600073ffffffffffffffffffffffffffffffffffffffff168273ffffffffffffffffffffffffffffffffffffffff161415613110576040517f08c379a00000000000000000000000000000000000000000000000000000000081526004016131079061551b565b60405180910390fd5b61311b838383613a44565b613126600082612e93565b6001600360008573ffffffffffffffffffffffffffffffffffffffff1673ffffffffffffffffffffffffffffffffffffffff16815260200190815260200160002060008282546131769190615a20565b925050819055506001600360008473ffffffffffffffffffffffffffffffffffffffff1673ffffffffffffffffffffffffffffffffffffffff16815260200190815260200160002060008282546131cd919061593f565b92505081905550816002600083815260200190815260200160002060006101000a81548173ffffffffffffffffffffffffffffffffffffffff021916908373ffffffffffffffffffffffffffffffffffffffff160217905550808273ffffffffffffffffffffffffffffffffffffffff168473ffffffffffffffffffffffffffffffffffffffff167fddf252ad1be2c89b69c2b068fc378daa952ba7f163c4a11628f55a4df523b3ef60405160405180910390a4505050565b61331e828260405160240161329c92919061546d565b6040516020818303038152906040527f9710a9d0000000000000000000000000000000000000000000000000000000007bffffffffffffffffffffffffffffffffffffffffffffffffffffffff19166020820180517bffffffffffffffffffffffffffffffffffffffffffffffffffffffff8381831617835250505050613a1b565b5050565b6133bc83838360405160240161333a93929190615366565b6040516020818303038152906040527ff362ca59000000000000000000000000000000000000000000000000000000007bffffffffffffffffffffffffffffffffffffffffffffffffffffffff19166020820180517bffffffffffffffffffffffffffffffffffffffffffffffffffffffff8381831617835250505050613a1b565b505050565b613457816040516024016133d5919061530d565b6040516020818303038152906040527f41304fac000000000000000000000000000000000000000000000000000000007bffffffffffffffffffffffffffffffffffffffffffffffffffffffff19166020820180517bffffffffffffffffffffffffffffffffffffffffffffffffffffffff8381831617835250505050613a1b565b50565b60016006826134699190615ba3565b613473919061593f565b600981905550600a6101eb8260405160200161348f919061571f565b6040516020818303038152906040528051906020012060001c6134b29190615ba3565b6134bc919061593f565b600a819055505050565b6134d184848461302a565b6134dd84848484613a49565b61351c576040517f08c379a0000000000000000000000000000000000000000000000000000000008152600401613513906154db565b60405180910390fd5b50505050565b6060600082141561356a576040518060400160405280600181526020017f300000000000000000000000000000000000000000000000000000000000000081525090506136ca565b600082905060005b6000821461359c57808061358590615b46565b915050600a826135959190615995565b9150613572565b60008167ffffffffffffffff8111156135de577f4e487b7100000000000000000000000000000000000000000000000000000000600052604160045260246000fd5b6040519080825280601f01601f1916602001820160405280156136105781602001600182028036833780820191505090505b5090505b600085146136c3576001826136299190615a20565b9150600a856136389190615ba3565b6030613644919061593f565b60f81b818381518110613680577f4e487b7100000000000000000000000000000000000000000000000000000000600052603260045260246000fd5b60200101907effffffffffffffffffffffffffffffffffffffffffffffffffffffffffffff1916908160001a905350600a856136bc9190615995565b9450613614565b8093505050505b919050565b606060008251905060008114156136f85760405180602001604052806000815250915050613888565b60006003600283613709919061593f565b6137139190615995565b600461371f91906159c6565b90506000602082613730919061593f565b67ffffffffffffffff81111561376f577f4e487b7100000000000000000000000000000000000000000000000000000000600052604160045260246000fd5b6040519080825280601f01601f1916602001820160405280156137a15781602001600182028036833780820191505090505b5090506000604051806060016040528060408152602001615d92604091399050600181016020830160005b868110156138455760038101905062ffffff818a015116603f8160121c168401518060081b905060ff603f83600c1c1686015116810190508060081b905060ff603f8360061c1686015116810190508060081b905060ff603f831686015116810190508060e01b905080845260048401935050506137cc565b50600386066001811461385f576002811461386f5761387a565b613d3d60f01b600283035261387a565b603d60f81b60018303525b508484525050819450505050505b919050565b60007f000000000000000000000000000000000000000000000000000000000000000073ffffffffffffffffffffffffffffffffffffffff16634000aea07f00000000000000000000000000000000000000000000000000000000000000008486600060405160200161390192919061529f565b6040516020818303038152906040526040518463ffffffff1660e01b815260040161392e939291906151d2565b602060405180830381600087803b15801561394857600080fd5b505af115801561395c573d6000803e3d6000fd5b505050506040513d601f19601f820116820180604052508101906139809190614267565b5060006139a3846000306006600089815260200190815260200160002054613be0565b9050600160066000868152602001908152602001600020546139c5919061593f565b60066000868152602001908152602001600020819055506139e68482613c1c565b91505092915050565b600081600001549050919050565b613a17828260405180602001604052806000815250613c4f565b5050565b60008151905060006a636f6e736f6c652e6c6f679050602083016000808483855afa5050505050565b505050565b6000613a6a8473ffffffffffffffffffffffffffffffffffffffff16613caa565b15613bd3578373ffffffffffffffffffffffffffffffffffffffff1663150b7a02613a93612e8b565b8786866040518563ffffffff1660e01b8152600401613ab59493929190615186565b602060405180830381600087803b158015613acf57600080fd5b505af1925050508015613b0057506040513d601f19601f82011682018060405250810190613afd91906142f5565b60015b613b83573d8060008114613b30576040519150601f19603f3d011682016040523d82523d6000602084013e613b35565b606091505b50600081511415613b7b576040517f08c379a0000000000000000000000000000000000000000000000000000000008152600401613b72906154db565b60405180910390fd5b805181602001fd5b63150b7a0260e01b7bffffffffffffffffffffffffffffffffffffffffffffffffffffffff1916817bffffffffffffffffffffffffffffffffffffffffffffffffffffffff191614915050613bd8565b600190505b949350505050565b600084848484604051602001613bf994939291906152c8565b6040516020818303038152906040528051906020012060001c9050949350505050565b60008282604051602001613c31929190615030565b60405160208183030381529060405280519060200120905092915050565b613c598383613cbd565b613c666000848484613a49565b613ca5576040517f08c379a0000000000000000000000000000000000000000000000000000000008152600401613c9c906154db565b60405180910390fd5b505050565b600080823b905060008111915050919050565b600073ffffffffffffffffffffffffffffffffffffffff168273ffffffffffffffffffffffffffffffffffffffff161415613d2d576040517f08c379a0000000000000000000000000000000000000000000000000000000008152600401613d249061561b565b60405180910390fd5b613d3681612e1f565b15613d76576040517f08c379a0000000000000000000000000000000000000000000000000000000008152600401613d6d906154fb565b60405180910390fd5b613d8260008383613a44565b6001600360008473ffffffffffffffffffffffffffffffffffffffff1673ffffffffffffffffffffffffffffffffffffffff1681526020019081526020016000206000828254613dd2919061593f565b92505081905550816002600083815260200190815260200160002060006101000a81548173ffffffffffffffffffffffffffffffffffffffff021916908373ffffffffffffffffffffffffffffffffffffffff160217905550808273ffffffffffffffffffffffffffffffffffffffff16600073ffffffffffffffffffffffffffffffffffffffff167fddf252ad1be2c89b69c2b068fc378daa952ba7f163c4a11628f55a4df523b3ef60405160405180910390a45050565b6040518060c001604052806060815260200160608152602001600081526020016000815260200160008152602001600081525090565b6040518061012001604052806000815260200160608152602001606081526020016000815260200160008152602001600081526020016000815260200160008152602001600081525090565b828054613f1990615b14565b90600052602060002090601f016020900481019282613f3b5760008555613f82565b82601f10613f5457805160ff1916838001178555613f82565b82800160010185558215613f82579182015b82811115613f81578251825591602001919060010190613f66565b5b509050613f8f9190613f93565b5090565b5b80821115613fac576000816000905550600101613f94565b5090565b6000613fc3613fbe84615882565b615851565b905082815260208101848484011115613fdb57600080fd5b613fe6848285615ad2565b509392505050565b600081359050613ffd81615ca1565b92915050565b60008135905061401281615cb8565b92915050565b60008151905061402781615cb8565b92915050565b60008135905061403c81615ccf565b92915050565b60008135905061405181615ce6565b92915050565b60008151905061406681615ce6565b92915050565b600082601f83011261407d57600080fd5b813561408d848260208601613fb0565b91505092915050565b6000813590506140a581615cfd565b92915050565b6000815190506140ba81615cfd565b92915050565b6000602082840312156140d257600080fd5b60006140e084828501613fee565b91505092915050565b600080604083850312156140fc57600080fd5b600061410a85828601613fee565b925050602061411b85828601613fee565b9150509250929050565b60008060006060848603121561413a57600080fd5b600061414886828701613fee565b935050602061415986828701613fee565b925050604061416a86828701614096565b9150509250925092565b6000806000806080858703121561418a57600080fd5b600061419887828801613fee565b94505060206141a987828801613fee565b93505060406141ba87828801614096565b925050606085013567ffffffffffffffff8111156141d757600080fd5b6141e38782880161406c565b91505092959194509250565b6000806040838503121561420257600080fd5b600061421085828601613fee565b925050602061422185828601614003565b9150509250929050565b6000806040838503121561423e57600080fd5b600061424c85828601613fee565b925050602061425d85828601614096565b9150509250929050565b60006020828403121561427957600080fd5b600061428784828501614018565b91505092915050565b600080604083850312156142a357600080fd5b60006142b18582860161402d565b92505060206142c285828601614096565b9150509250929050565b6000602082840312156142de57600080fd5b60006142ec84828501614042565b91505092915050565b60006020828403121561430757600080fd5b600061431584828501614057565b91505092915050565b60006020828403121561433057600080fd5b600061433e84828501614096565b91505092915050565b60006020828403121561435957600080fd5b6000614367848285016140ab565b91505092915050565b600061437c8383614e63565b905092915050565b61438d81615a54565b82525050565b600061439e826158c2565b6143a881856158f0565b9350836020820285016143ba856158b2565b8060005b858110156143f657848403895281516143d78582614370565b94506143e2836158e3565b925060208a019950506001810190506143be565b50829750879550505050505092915050565b61441181615a66565b82525050565b61442081615a72565b82525050565b61443761443282615a72565b615b8f565b82525050565b6000614448826158cd565b6144528185615901565b9350614462818560208601615ae1565b61446b81615c90565b840191505092915050565b6000614481826158d8565b61448b8185615912565b935061449b818560208601615ae1565b6144a481615c90565b840191505092915050565b60006144ba826158d8565b6144c48185615923565b93506144d4818560208601615ae1565b6144dd81615c90565b840191505092915050565b60006144f3826158d8565b6144fd8185615934565b935061450d818560208601615ae1565b80840191505092915050565b6000614526600b83615934565b91507f202d2d204e465420233a200000000000000000000000000000000000000000006000830152600b82019050919050565b6000614566602883615934565b91507f7d2c20207b202274726169745f74797065223a2022446566656e7365222c202260008301527f76616c7565223a200000000000000000000000000000000000000000000000006020830152602882019050919050565b60006145cc600d83615934565b91507f2c226d61785f76616c7565223a000000000000000000000000000000000000006000830152600d82019050919050565b600061460c603283615923565b91507f4552433732313a207472616e7366657220746f206e6f6e20455243373231526560008301527f63656976657220696d706c656d656e74657200000000000000000000000000006020830152604082019050919050565b6000614672601c83615923565b91507f4552433732313a20746f6b656e20616c7265616479206d696e746564000000006000830152602082019050919050565b60006146b2600e83615934565b91507f2c20226d61785f76616c7565223a0000000000000000000000000000000000006000830152600e82019050919050565b60006146f2602483615923565b91507f4552433732313a207472616e7366657220746f20746865207a65726f2061646460008301527f72657373000000000000000000000000000000000000000000000000000000006020830152604082019050919050565b6000614758601983615923565b91507f4552433732313a20617070726f766520746f2063616c6c6572000000000000006000830152602082019050919050565b6000614798601a83615923565b91507f4e6f206e65656420746f207265636f76657221204669676874210000000000006000830152602082019050919050565b60006147d8602b83615923565b91507f4e6f7420656e6f756768204c494e4b202d2066696c6c20636f6e74726163742060008301527f77697468206661756365740000000000000000000000000000000000000000006020830152604082019050919050565b600061483e602c83615923565b91507f4552433732313a206f70657261746f7220717565727920666f72206e6f6e657860008301527f697374656e7420746f6b656e00000000000000000000000000000000000000006020830152604082019050919050565b60006148a4603883615923565b91507f4552433732313a20617070726f76652063616c6c6572206973206e6f74206f7760008301527f6e6572206e6f7220617070726f76656420666f7220616c6c00000000000000006020830152604082019050919050565b600061490a602a83615923565b91507f4552433732313a2062616c616e636520717565727920666f7220746865207a6560008301527f726f2061646472657373000000000000000000000000000000000000000000006020830152604082019050919050565b6000614970602983615923565b91507f4552433732313a206f776e657220717565727920666f72206e6f6e657869737460008301527f656e7420746f6b656e00000000000000000000000000000000000000000000006020830152604082019050919050565b60006149d6602083615923565b91507f4552433732313a206d696e7420746f20746865207a65726f20616464726573736000830152602082019050919050565b6000614a16600383615934565b91507f7d5d7d00000000000000000000000000000000000000000000000000000000006000830152600382019050919050565b6000614a56602c83615923565b91507f4552433732313a20617070726f76656420717565727920666f72206e6f6e657860008301527f697374656e7420746f6b656e00000000000000000000000000000000000000006020830152604082019050919050565b6000614abc602983615923565b91507f4552433732313a207472616e73666572206f6620746f6b656e2074686174206960008301527f73206e6f74206f776e00000000000000000000000000000000000000000000006020830152604082019050919050565b6000614b22600a83615934565b91507f7b226e616d65223a2022000000000000000000000000000000000000000000006000830152600a82019050919050565b6000614b62601f83615923565b91507f4f6e6c7920565246436f6f7264696e61746f722063616e2066756c66696c6c006000830152602082019050919050565b6000614ba2602183615923565b91507f4552433732313a20617070726f76616c20746f2063757272656e74206f776e6560008301527f72000000000000000000000000000000000000000000000000000000000000006020830152604082019050919050565b6000614c08601d83615934565b91507f646174613a6170706c69636174696f6e2f6a736f6e3b6261736536342c0000006000830152601d82019050919050565b6000614c48603183615923565b91507f4552433732313a207472616e736665722063616c6c6572206973206e6f74206f60008301527f776e6572206e6f7220617070726f7665640000000000000000000000000000006020830152604082019050919050565b6000614cae603a83615934565b91507f222c20226465736372697074696f6e223a202254686973206973206120636f6f60008301527f6c204e465421222c2022696d616765223a2022697066733a2f2f0000000000006020830152603a82019050919050565b6000614d14603d83615934565b91507f222c202261747472696275746573223a205b207b202274726169745f7479706560008301527f223a20224865616c746820506f696e7473222c202276616c7565223a200000006020830152603d82019050919050565b6000614d7a602d83615934565b91507f7d2c207b202274726169745f74797065223a202241747461636b2044616d616760008301527f65222c202276616c7565223a20000000000000000000000000000000000000006020830152602d82019050919050565b600060c0830160008301518482036000860152614df08282614476565b91505060208301518482036020860152614e0a8282614476565b9150506040830151614e1f6040860182614ffb565b506060830151614e326060860182614ffb565b506080830151614e456080860182614ffb565b5060a0830151614e5860a0860182614ffb565b508091505092915050565b600061012083016000830151614e7c6000860182614ffb565b5060208301518482036020860152614e948282614476565b91505060408301518482036040860152614eae8282614476565b9150506060830151614ec36060860182614ffb565b506080830151614ed66080860182614ffb565b5060a0830151614ee960a0860182614ffb565b5060c0830151614efc60c0860182614ffb565b5060e0830151614f0f60e0860182614ffb565b50610100830151614f24610100860182614ffb565b508091505092915050565b600061012083016000830151614f486000860182614ffb565b5060208301518482036020860152614f608282614476565b91505060408301518482036040860152614f7a8282614476565b9150506060830151614f8f6060860182614ffb565b506080830151614fa26080860182614ffb565b5060a0830151614fb560a0860182614ffb565b5060c0830151614fc860c0860182614ffb565b5060e0830151614fdb60e0860182614ffb565b50610100830151614ff0610100860182614ffb565b508091505092915050565b61500481615ac8565b82525050565b61501381615ac8565b82525050565b61502a61502582615ac8565b615b99565b82525050565b600061503c8285614426565b60208201915061504c8284615019565b6020820191508190509392505050565b600061506782614b15565b9150615073828c6144e8565b915061507e82614519565b915061508a828b6144e8565b915061509582614ca1565b91506150a1828a6144e8565b91506150ac82614d07565b91506150b882896144e8565b91506150c3826146a5565b91506150cf82886144e8565b91506150da82614d6d565b91506150e682876144e8565b91506150f1826145bf565b91506150fd82866144e8565b915061510882614559565b915061511482856144e8565b915061511f826145bf565b915061512b82846144e8565b915061513682614a09565b91508190509a9950505050505050505050565b600061515482614bfb565b915061516082846144e8565b915081905092915050565b60006020820190506151806000830184614384565b92915050565b600060808201905061519b6000830187614384565b6151a86020830186614384565b6151b5604083018561500a565b81810360608301526151c7818461443d565b905095945050505050565b60006060820190506151e76000830186614384565b6151f4602083018561500a565b8181036040830152615206818461443d565b9050949350505050565b60006060820190506152256000830186614384565b615232602083018561500a565b61523f604083018461500a565b949350505050565b600060208201905081810360008301526152618184614393565b905092915050565b600060208201905061527e6000830184614408565b92915050565b60006020820190506152996000830184614417565b92915050565b60006040820190506152b46000830185614417565b6152c1602083018461500a565b9392505050565b60006080820190506152dd6000830187614417565b6152ea602083018661500a565b6152f76040830185614384565b615304606083018461500a565b95945050505050565b6000602082019050818103600083015261532781846144af565b905092915050565b6000604082019050818103600083015261534981856144af565b9050818103602083015261535d81846144af565b90509392505050565b6000606082019050818103600083015261538081866144af565b9050818103602083015261539481856144af565b90506153a3604083018461500a565b949350505050565b600060808201905081810360008301526153c581876144af565b905081810360208301526153d981866144af565b90506153e8604083018561500a565b6153f5606083018461500a565b95945050505050565b600060c082019050818103600083015261541881896144af565b9050818103602083015261542c81886144af565b905061543b604083018761500a565b615448606083018661500a565b615455608083018561500a565b61546260a083018461500a565b979650505050505050565b6000604082019050818103600083015261548781856144af565b9050615496602083018461500a565b9392505050565b600060608201905081810360008301526154b781866144af565b90506154c6602083018561500a565b6154d3604083018461500a565b949350505050565b600060208201905081810360008301526154f4816145ff565b9050919050565b6000602082019050818103600083015261551481614665565b9050919050565b60006020820190508181036000830152615534816146e5565b9050919050565b600060208201905081810360008301526155548161474b565b9050919050565b600060208201905081810360008301526155748161478b565b9050919050565b60006020820190508181036000830152615594816147cb565b9050919050565b600060208201905081810360008301526155b481614831565b9050919050565b600060208201905081810360008301526155d481614897565b9050919050565b600060208201905081810360008301526155f4816148fd565b9050919050565b6000602082019050818103600083015261561481614963565b9050919050565b60006020820190508181036000830152615634816149c9565b9050919050565b6000602082019050818103600083015261565481614a49565b9050919050565b6000602082019050818103600083015261567481614aaf565b9050919050565b6000602082019050818103600083015261569481614b55565b9050919050565b600060208201905081810360008301526156b481614b95565b9050919050565b600060208201905081810360008301526156d481614c3b565b9050919050565b600060208201905081810360008301526156f58184614dd3565b905092915050565b600060208201905081810360008301526157178184614f2f565b905092915050565b6000602082019050615734600083018461500a565b92915050565b600061012082019050615750600083018c61500a565b8181036020830152615762818b6144af565b90508181036040830152615776818a6144af565b9050615785606083018961500a565b615792608083018861500a565b61579f60a083018761500a565b6157ac60c083018661500a565b6157b960e083018561500a565b6157c761010083018461500a565b9a9950505050505050505050565b60006040820190506157ea600083018561500a565b6157f7602083018461500a565b9392505050565b600060a082019050615813600083018861500a565b615820602083018761500a565b61582d604083018661500a565b61583a606083018561500a565b615847608083018461500a565b9695505050505050565b6000604051905081810181811067ffffffffffffffff8211171561587857615877615c61565b5b8060405250919050565b600067ffffffffffffffff82111561589d5761589c615c61565b5b601f19601f8301169050602081019050919050565b6000819050602082019050919050565b600081519050919050565b600081519050919050565b600081519050919050565b6000602082019050919050565b600082825260208201905092915050565b600082825260208201905092915050565b600082825260208201905092915050565b600082825260208201905092915050565b600081905092915050565b600061594a82615ac8565b915061595583615ac8565b9250827fffffffffffffffffffffffffffffffffffffffffffffffffffffffffffffffff0382111561598a57615989615bd4565b5b828201905092915050565b60006159a082615ac8565b91506159ab83615ac8565b9250826159bb576159ba615c03565b5b828204905092915050565b60006159d182615ac8565b91506159dc83615ac8565b9250817fffffffffffffffffffffffffffffffffffffffffffffffffffffffffffffffff0483118215151615615a1557615a14615bd4565b5b828202905092915050565b6000615a2b82615ac8565b9150615a3683615ac8565b925082821015615a4957615a48615bd4565b5b828203905092915050565b6000615a5f82615aa8565b9050919050565b60008115159050919050565b6000819050919050565b60007fffffffff0000000000000000000000000000000000000000000000000000000082169050919050565b600073ffffffffffffffffffffffffffffffffffffffff82169050919050565b6000819050919050565b82818337600083830152505050565b60005b83811015615aff578082015181840152602081019050615ae4565b83811115615b0e576000848401525b50505050565b60006002820490506001821680615b2c57607f821691505b60208210811415615b4057615b3f615c32565b5b50919050565b6000615b5182615ac8565b91507fffffffffffffffffffffffffffffffffffffffffffffffffffffffffffffffff821415615b8457615b83615bd4565b5b600182019050919050565b6000819050919050565b6000819050919050565b6000615bae82615ac8565b9150615bb983615ac8565b925082615bc957615bc8615c03565b5b828206905092915050565b7f4e487b7100000000000000000000000000000000000000000000000000000000600052601160045260246000fd5b7f4e487b7100000000000000000000000000000000000000000000000000000000600052601260045260246000fd5b7f4e487b7100000000000000000000000000000000000000000000000000000000600052602260045260246000fd5b7f4e487b7100000000000000000000000000000000000000000000000000000000600052604160045260246000fd5b6000601f19601f8301169050919050565b615caa81615a54565b8114615cb557600080fd5b50565b615cc181615a66565b8114615ccc57600080fd5b50565b615cd881615a72565b8114615ce357600080fd5b50565b615cef81615a7c565b8114615cfa57600080fd5b50565b615d0681615ac8565b8114615d1157600080fd5b5056fe0a506c6179657220772f206368617261637465722025732061626f757420746f207265636f7665722e2048617320257320414420616e642025732044454620426f73732025732061747461636b656421204e6f7720706c6179657220646566656e7365206973203020616e6420706c61796572204850206973202573214142434445464748494a4b4c4d4e4f505152535455565758595a6162636465666768696a6b6c6d6e6f707172737475767778797a303132333435363738392b2f506c61796572207265636f766572656420616e64206973206261636b20746f2025732044454621506c61796572207265636f766572656420616e64206973206261636b20746f2025732041544b21426f73732025732061747461636b656420616e6420796f75722048502077656e7420646f776e202573210a506c6179657220772f206368617261637465722025732061626f757420746f2061747461636b2e2048617320257320485020616e64202573204144426f73732025732061747461636b656421204e6f7720706c6179657220646566656e73652077656e7420646f776e20746f20257321a2646970667358221220a27ab0fdc226b0f088bbaa648fcf2dad6dd950d2ae61c75b1ef49b5b7bed9b7164736f6c63430008000033446f6e6520696e697469616c697a696e6720257320772f2048502025732c206d61784850202573446f6e6520696e697469616c697a696e6720257320776974682048502025732c20616e642061747461636b202573",
  "linkReferences": {},
  "deployedLinkReferences": {}
}